S025000057696E64795F4D63755F4E75636C6575735F506C745F325F355F7342706D2E7331395D
S10B0000C01F002089DE00008E
S1130400FFFFFFFFFFFFFFFFFFFFFFFFFE7BFFFF7D
S1130600C01F0020659E000087A3000087A3000090
S113061087A3000087A3000087A300000000000058
S113062000000000000000000000000087A300009C
S113063087A300000000000087A30000E5C50000B8
S113064087A3000087A3000087A3000087A30000FE
S113065087A3000087A3000087A3000087A30000EE
S113066087A3000087A3000087A3000087A30000DE
S113067087A3000087A3000087A3000087A30000CE
S113068087A3000087A3000087A3000087A30000BE
S113069087A3000087A3000087A3000087A30000AE
S11306A087A3000087A3000087A3000087A300009E
S11306B0000000000000000087A30000C3CC00007D
S11306C0C3CC00006DCD00006DCD000023CE000032
S11306D023CE0000000000000000000087A30000FB
S11306E087A3000087A300001763000087A300000E
S11306F087A30000000000000000000000000000CC
S113070087A3000087A3000087A3000087A300003D
S1130710375C000000000000000000000000000042
S113072087A3000087A300004F9E000087A300005A
S113073087A3000087A3000087A3000087A300000D
S113074087A300000000000000000000000000007B
S113075000000000000000000000000087A300006B
S10B076087A30000F15B000017
S113076810B508F041FA06221821042008F0D4FF35
S1130778DFF8B84A012084F86C0300220020A4F8AA
S113078898031821012084F86D03042009F017F850
S11307980020C4F84801C4F84C01C4F85001C4F856
S11307A8440101F021FA0020C4F8D804C4F8DC0498
S11307B8DFF87C0AC4F8D004002084F86B0341F203
S11307C88C00C4F8E0030020C4F8E403C4F8E80388
S11307D8C4F8EC03A4F87A03022084F8540310BD87
S11307E8F0B54042000100EE900A9FED370AF8EE9A
S11307F8E00ADFF8384A60EE800A9FED341A60EEAA
S1130808810A4842C4ED520A000100EE900AF8EE4B
S1130818E00A60EE800A60EE810A5042C4ED530A91
S1130828000100EE900AF8EEE00A20EE800ADFEDFF
S1130838270A20EE200A84ED540AD80000EE100A94
S1130848B8EEC00ADFED220A94F85553D4F8E01341
S113085894F8540320EE200ADFED1C0A6D1C20EEE8
S1130868200A81B084F8555384ED510A072833DBF4
S1130878D4F8482122F0004200EE102AD4F84C2182
S113088822F0004200EE902AD4F85021DFED111A2C
S113089822F00042B4EE610A01EE102AF1EE10FAD9
S11308A8BFBFF4EE610AF1EE10FAB4EE611AF1EE8C
S11308B810FA11DBD4F8E42340F201431A43C4F8D4
S11308C8E42341F4806109E01F85034100000038F6
S11308D833B3DD439A99014121F48061C4F8E013EC
S11308E8002948D0032806DA022840F09582C1F38B
S11308F8400000283AD0062084F85403D4F8E803CA
S113090840F00100C4F8E80307F014FF04F273315F
S113091804F2723008F079FF04F2C63104F2A6300A
S113092808F073FF94F87203B4F8A61302281DD1D3
S113093848071BD40020A4F87A03C4F8D804C4F8E0
S1130948DC04DFF8EC08C4F8D004002084F86B0356
S1130958D4F8E00350B9D4F8E80320F4FD70C4F8DF
S1130968E80301F0D1FD032084F8540301B0BDE885
S1130978F04008F084B9082840F0AC80E80718D59E
S113098801F01FFD012001F0FBFD012815D194F8A9
S1130998E400C00709D504F5467003F0BBFB04F571
S11309A8CE7104F5FE7002F08DFD092084F854031D
S11309B803E004F0DDFF84ED550AD4F8E803C10729
S11309C869D4C0F34000C8B104F2C63104F2A630B9
S11309D808F095FFB4F8A603C0F340000028C5D07A
S11309E8DFF8E00D816D41F03F018165C16E0A06B3
S11309F8D20FBBD021F08F01C166B7E794F88D01FF
S1130A0894F88C1150FA81F222B1002943D10028BC
S1130A18ACD0D9E79FEDC80AD4ED5F0A60EE800A2E
S1130A28FDEEE00A10EE907AD4ED5E0A60EE800ADC
S1130A38FDEEE00A10EE906AD4ED5D0A20EE800A1D
S1130A48BDEEC00A10EE105A04F2C63104F2A63004
S1130A5808F055FFB4F8A603800787D5DFF8640DBE
S1130A680168491C07FB01F206FB01F369434900CD
S1130A78091401635B00494281621B145942520004
S1130A88816112145142816003624FF40071026162
S1130A98C0F890106AE704F2C63104F2A63008F0F0
S1130AA82EFFB4F8A603C0F3400000283FF45EAF5D
S1130AB8DFF8100D00210163816201628161016127
S1130AC881604FF40071C0F89010816D8909890123
S1130AD881654BE7072840F0AF80E80709D594F80B
S1130AE85703012805D101F069FE10B1032084F8E9
S1130AF85703D4F8E803C10768D4C0F3400050B9D9
S1130B0894F88D0194F88C1150FA81F2EAB1002915
S1130B185CD1002876D004F2C63104F2A63008F07D
S1130B28EEFEB4F8A603C0F3400000286AD0DFF84C
S1130B38940C816D41F03F018165C16E0A06D20FA4
S1130B4860D021F08F01C1665CE09FED7B0AD4ED93
S1130B585F0A60EE800AFDEEE00A10EE907AD4EDAA
S1130B685E0A60EE800AFDEEE00A10EE906AD4EDAB
S1130B785D0A20EE800ABDEEC00A10EE105A04F297
S1130B88C63104F2A63008F0BAFEB4F8A60380070A
S1130B9838D5DFF8300C0168491C07FB01F206FB65
S1130BA801F369434900091401635B004942816206
S1130BB81B1459425200816112145142816003622C
S1130BC84FF400710261C0F890101BE004F2C631C2
S1130BD804F2A63008F093FEB4F8A603C0F340006C
S1130BE880B1DFF8E00B0021016381620162816159
S1130BF8016181604FF40071C0F89010816D89091A
S1130C0889018165D4F8E803C0F3800008B10520A0
S1130C180CE001F0B5FC01280AD101F081FBD4F8FD
S1130C28E40040F01000C4F8E400082084F85403F9
S1130C38002001F0A5FC99E6042840F09F8007F005
S1130C4847FDD4F8E803C0F3800008B105208BE61B
S1130C5804F2C63104F2A63008F051FEB4F8A60333
S1130C6880077FF583AED4F8E80310F0F00F18BFBF
S1130C780B207AD1C0F3C001002970D00020C4F839
S1130C88DC040021D4F8F4024160B6EE000AD4F87A
S1130C98F40281609FED291AD4F8000380ED000A5C
S1130CA8DFED271AD4F8000380ED010AD4F8000315
S1130CB880ED020A9FED230AD4F83803D0ED000A28
S1130CC860EE810A04F26C4060EE800AC0ED000A0E
S1130CD8D4F8380390ED001A21EE211A04F270407A
S1130CE821EE000A80ED000A04F27440C0ED000A07
S1130CF894F88C03C00727D5C4F8B8140121D4F894
S1130D08F40384F86713E4300169A4F892130168C2
S1130D18A4F8941394F8661301290AD1022184F8DB
S1130D28661394F86813491C84F86813406CA4F893
S1130D389003012009E000BF000000476666863F73
S1130D483333733F5077D63D032084F8570394F820
S1130D58580300F0F70084F85803072005E0C0F3AF
S1130D68002020B103F084FB012084F85403D4F854
S1130D78E80320F00800C4F8E803F7E5092824D1BB
S1130D88E80708D501F096FB022001F0F9FB10B141
S1130D98052084F85403D4F8E803C1073FF57BAE73
S1130DA8C0F3400000287FF40FAE94F88D0194F846
S1130DB88C1150FA81F2002A3FF42CAE00297FF4FA
S1130DC86AAE00283FF4D2ADFEE5052824D107F029
S1130DD8B1FC04F2733104F2723008F016FD04F227
S1130DE8C63104F2A63008F010FD94F87203B4F882
S1130DF8A61302287FF4BAAD48073FF5B7AD002023
S1130E08C4F8D804C4F8DC04DFF82404C4F8D00413
S1130E18002084F86B03A4E502281CD100297FF480
S1130E28A5AD04F2733104F2723008F0EEFC04F25A
S1130E38C63104F2A63008F0E8FC94F87203B4F85A
S1130E48A61302287FF492AD48073FF58FAD002022
S1130E58C4F8E40385E5032840F096800020C4F82C
S1130E685401D4F8E80394F88C11C008C000C4F8FD
S1130E78E80394F88D0150FA81F2EAB100295CD1B3
S1130E88002876D004F2C63104F2A63008F037FD03
S1130E98B4F8A603C0F3400000286AD0DFF8240998
S1130EA8816D41F03F018165C16E0A06D20F60D0A1
S1130EB821F08F01C1665CE09FEDDB0AD4ED5F0A87
S1130EC860EE800AFDEEE00A10EE907AD4ED5E0A38
S1130ED860EE800AFDEEE00A10EE906AD4ED5D0A39
S1130EE820EE800ABDEEC00A10EE105A04F2C63194
S1130EF804F2A63008F003FDB4F8A603800738D539
S1130F08DFF8C0080168491C07FB01F206FB01F37E
S1130F1869434900091401635B00494281621B1457
S1130F2859425200816112145142816003624FF4A4
S1130F3800710261C0F890101BE004F2C63104F29B
S1130F48A63008F0DCFCB4F8A603C0F3400080B176
S1130F58DFF8700800210163816201628161016127
S1130F6881604FF40071C0F89010816D890989017E
S1130F788165D4F8E80310F4FC7F3FF4F7AC002053
S1130F88A4F87A030420EFE40A283FF4EFAC0B2812
S1130F9840F09680D4F8E803C10768D4C0F3400051
S1130FA850B994F88D0194F88C1150FA81F2EAB191
S1130FB800295CD1002876D004F2C63104F2A630A8
S1130FC808F09DFCB4F8A603C0F3400000286AD0DA
S1130FD8DFF8F007816D41F03F018165C16E0A06B3
S1130FE8D20F60D021F08F01C1665CE09FED8E0ABC
S1130FF8D4ED5F0A60EE800AFDEEE00A10EE907A06
S1131008D4ED5E0A60EE800AFDEEE00A10EE906A06
S1131018D4ED5D0A20EE800ABDEEC00A10EE105A27
S113102804F2C63104F2A63008F069FCB4F8A60349
S1131038800738D5DFF88C070168491C07FB01F2E3
S113104806FB01F369434900091401635B00494243
S113105881621B1459425200816112145142816009
S113106803624FF400710261C0F890101BE004F2AF
S1131078C63104F2A63008F042FCB4F8A603C0F363
S1131088400080B1DFF83C070021016381620162FE
S11310988161016181604FF40071C0F89010816D25
S11310A8890989018165D4F8E803C0F3800100291E
S11310B83FF45CAC20F0F000C4F8E803052053E4E6
S11310C801287FF421ACE80748BF03F013FAD4F8E9
S11310D8E803C10768D4C0F3400050B994F88D01FF
S11310E894F88C1150FA81F2EAB100295CD10028F5
S11310F876D004F2C63104F2A63008F000FCB4F845
S1131108A603C0F3400000286AD0DFF8B806816D52
S113111841F03F018165C16E0A06D20F60D021F00B
S11311288F01C1665CE09FED400AD4ED5F0A60EE72
S1131138800AFDEEE00A10EE907AD4ED5E0A60EEC5
S1131148800AFDEEE00A10EE906AD4ED5D0A20EE06
S1131158800ABDEEC00A10EE105A04F2C63104F239
S1131168A63008F0CCFBB4F8A603800738D5DFF81E
S113117854060168491C07FB01F206FB01F36943A5
S11311884900091401635B00494281621B145942F6
S11311985200816112145142816003624FF400715C
S11311A80261C0F890101BE004F2C63104F2A630C4
S11311B808F0A5FBB4F8A603C0F3400080B1DFF83B
S11311C80406002101638162016281610161816019
S11311D84FF40071C0F89010816D89098901816507
S11311E894F8630300F0010080F00100012806D0A0
S11311F8D4F8E803C0F3800000283FF4B7ABD4F870
S1131208E00300287FF4B2ABC4F8E403D4F8E8039D
S113121820F48070C4F8E80304F18800C4F8E001FD
S11312280520FFF7A1BB0000000000477CE0FF1F7A
S1131238FDAD803A00B581B007F023FD01B05DF83B
S113124804EB00F0C1BF00F003BF000030B5DFF8C5
S11312589049D4F8E40394ED510AD4F8E013DFED8F
S11312689A0AB4EE600A81B0F1EE10FA04DB40F099
S1131278050041F0040108E0DFED940AB4EE600AC9
S1131288F1EE10FA48BF21F00401DFED910AB4EE43
S1131298600AF1EE10FA04D540F0090041F00801A3
S11312A808E0DFED8C0AB4EE600AF1EE10FAA8BF8C
S11312B821F0080194F86C23022A18BF042A0FBFEE
S11312C821F4800140F4800040F0010041F48001E1
S11312D8C4F8E013C4F8E40304F5717104F2A2300D
S11312E808F00DFBB4F8A203D4F8E013400609D5BE
S11312F8D4F8E40340F601021043C4F8E40341F4CB
S1131308006001E021F40060C4F8E00394F8560397
S113131818B1401E84F8560366E13C2084F856034D
S113132804F5717104F2A23008F0E9FAB4F8A203E2
S1131338012500B90025002D00F0AD8004F5717178
S113134804F2A23008F0DBFAB4F8A203C0070CD503
S1131358D4F8E40340F201110843C4F8E403D4F8D0
S1131368E00340F48070C4F8E00304F5717104F2FA
S1131378A23008F0C4FAB4F8A20380070CD5D4F854
S1131388E40340F201210843C4F8E403D4F8E00379
S113139840F40070C4F8E00304F5717104F2A2305B
S11313A808F0ADFAB4F8A20340070DD5D4F8E40365
S11313B840F4002040F00100C4F8E403D4F8E0034A
S11313C840F40020C4F8E00304F5717104F2A2307B
S11313D808F095FAB4F8A2030006C00F0DD0D4F8AB
S11313E8E40340F4005040F00100C4F8E403D4F8E6
S11313F8E00340F40050C4F8E00304F5717104F20A
S1131408A23008F07CFAD4F8E003B4F8A213490A2D
S113141801F00101C0F380029143C0F3C002D2433A
S113142811420BD0D4F8E41341F4001141F0010146
S113143840F40010C4F8E413C4F8E00304F571712F
S113144804F2A23008F05BFAB4F8A20300070DD541
S1131458D4F8E40340F4805040F00100C4F8E403F5
S1131468D4F8E00340F48050C4F8E00304F5717143
S113147804F2A23008F043FAB4F8A203C00531D547
S1131488D4F8E40340F08100C4F8E403D4F8E0039A
S113149840F0800024E0D4F8E003DFF8481708405F
S11314A8C4F8E003062001F06BF8A8B1D4F8E4030B
S11314B840F4005040F00100C4F8E403D4F8E00319
S11314C840F400500CE000BF0000D7430100BB43C8
S11314D801000C430000C842D4F8E00320F4005093
S11314E8C4F8E00394F85403082818BF072823D045
S11314F802280FD1B4F87A03B0F5507F18DDD4F878
S1131508E40340F00300C4F8E403D4F8E00340F033
S113151802002BE0062805D1D4F8E003DFF84419CB
S1131528084023E0042823D1B4F87A03212811DAE7
S1131538401CA4F87A031BE004F2C63104F2A63076
S113154808F0DDF9B4F8A6030006400E00F0010027
S113155828430DD1D4F8E40340F4802040F001007E
S1131568C4F8E403D4F8E00340F48020C4F8E003AA
S113157894F8540307280FDB94F8EC0380060BD483
S1131588D4F8E40340F00300C4F8E403D4F8E00317
S113159840F00200C4F8E003042000F0F1FFD4F89E
S11315A8E01340B1D4F8E40340F02100C4F8E403A4
S11315B841F0200001E021F02000C4F8E0030520F8
S11315C800F0DEFF50B1D4F8E40340F04100C4F861
S11315D8E403D4F8E00340F0400003E0D4F8E00367
S11315E820F04000C4F8E00394F85413D4F8EC0352
S11315F8032903D1052161F3440016E020F00A0011
S1131608082910D140F01000C4F8EC0304F013FAD0
S11316180328D4F8EC130CBF41F0040021F00400B3
S11316284008400001E020F00400C4F8EC0304F290
S1131638C63104F2A63008F062F9B4F8A60394F8A7
S1131648E420D4F8EC13400A00F0010002F001028F
S11316581018C0B202280CBF41F0200021F020006D
S1131668C4F8EC0394F8E400C00704D501B0BDE85D
S1131678304001F009B801B030BD00B581B007F0C1
S113168803FB04F00BFA01B05DF804EB00F01ABD9B
S113169870B44FF0FF33002840F08E80DFF8400527
S11316A8D0F8EC43C4F34014002C00F08080D0F848
S11316B8E843C4F38005002D74D100294CBF4D4282
S11316C80D462DB2643D44F6F546B54265D2002A6E
S11316D84CBF554215462DB26D1EB5F57A6F57D2DB
S11316E890F85453032D04D144F00803C0F8E833A8
S11316F801E0082D62D1002A48BF52429FEDCC0A6E
S113170852BB0A0048BF524200EE902AD0F8DC24AB
S1131718F8EEE00A22F0004260EE800A01EE102A98
S113172870EEC10AF5EE400AF1EE10FA2CD500EE7F
S1131738901AF8EEE00A00F2DC4120EE800A81ED0E
S1131748000A00F2D841002381ED000A0021C0F804
S1131758D414184670BC704700EE901AF8EEE00AEC
S113176800F2D84160EE800AC1ED000A00EE902A2A
S1131778F8EEE00A9FEDAF1A60EE810A00F2D44059
S113178820EE800A80ED000A002370BC18467047DA
S113179870BC6FF002031846704770BC6FF0010309
S11317A81846704770BC6FF005031846704770BC44
S11317B86FF00403184670476FF0060370BC1846B0
S11317C87047000008800340F0B4DFF81454D5F8DB
S11317D8E87395F858631C464FF0FF33002840F02F
S11317E89880D5F8EC03C0F34010002800F08880F6
S11317F8C7F38000002840F07A80100048BF4042B8
S1131808C5F85801200048BF4042C5F85C010329C7
S11318180498059A5BD8DFE801F002172E43C5F84F
S113182860010020C5F8640195F85403032872D1B7
S113183846F0100647F0100785F85863C5F8E873B2
S11318480023F0BC18467047C5F86001100048BF73
S11318584042C5F8640195F8540303285BD146F067
S1131868200647F0200785F85863C5F8E873002375
S1131878F0BC18467047C5F860010020C5F864013B
S113188895F85403032846D146F0400647F040072C
S113189885F85863C5F8E8730023F0BC1846704708
S11318A8C5F86001100048BF4042C5F8640195F8C6
S11318B8540303282FD146F0800647F0800785F8A3
S11318C85863C5F8E8730023F0BC18467047002035
S11318D885F85863C5F8E873C5F85801C5F85C017C
S11318E8C5F86001C5F864011846F0BC704785F86E
S11318F85863C5F8E8736FF00503F0BC18467047E1
S113190885F85863C5F8E8736FF00403F0BC18460B
S113191870476FF0060385F85863C5F8E8731846EE
S1131928F0BC704710B5002840F08080DFF8B04262
S1131938D4F8E803D4F8EC2320F00800C2F34012EA
S1131948C4F8E803002A5FD0C0F38002002A6DD1EE
S113195894F85423082A1CBF072A042A46D10029CC
S113196848BF494294F8582311B942F0010208E0EB
S1131978B1F57A6FC6BF4FF47A6142F0040242F0BF
S1131988020240F00400C4F8E80384F8582308006D
S113199848BF4042A8B9D4F8DC0420F0004000EE67
S11319A8100AB1EE400AB5EE400AF1EE10FA3DD540
S11319B80020C4F8DC04C4F8D804C4F8D404002013
S11319C810BD00EE100AB8EEC00ADFED1A0A20EEC8
S11319D8200ADFED170A04F2D44020EE200A002181
S11319E880ED000AC4F8D814002010BD0B2A1DD1BC
S11319F894F8581340F00400C4F8E80301F00F0108
S1131A0884F85813002010BD04F2C63104F2A6303D
S1131A1807F075FFB4F8A60340F4006204F2C63177
S1131A2804F2A63007F05EFF06F084FE002010BD25
S1131A385077D63D6F120339002138B9DFF8A00179
S1131A4890F85423032AA8BFD0F8E4130846704733
S1131A5800000000002220BBDFF8840190F8543312
S1131A68032B1EDB05291CD8DFE801F003060A0E48
S1131A78121690F8EC0312E0D0F8EC0340080EE0DC
S1131A88D0F8EC0380080AE0D0F8EC03C00806E0BC
S1131A98D0F8EC03000902E0D0F8EC03400900F0A8
S1131AA801021046704700004FF00042002840F041
S1131AB87F80182900F27C80DFE801F00D1B287A6A
S1131AC83542467A7A6E4A7A7A4E7A7A52565A7AEF
S1131AD85E62666A7700DFF8280A90ED000ADFED97
S1131AE83F0A20EE200ABDEEC00A10EE102A104666
S1131AF870473B4890ED550ADFED380A20EE200A7E
S1131B08BDEEC00A10EE102A10467047344890ED16
S1131B181E0ADFED320A20EE200ABDEEC00A10EEDE
S1131B28102A104670472E4890ED320ADFED2B0A32
S1131B3820EE200ABDEEC00A10EE102A10467047A7
S1131B48274890ED330A2AE0254890ED360A26E026
S1131B58234890ED370A22E0214890ED510A1EE00F
S1131B681F4890ED0E0A1AE01D4890ED0F0A16E082
S1131B781B4890ED100A12E0194890ED520A0EE045
S1131B88174890ED530A0AE0154890ED540A06E008
S1131B98134890ED340A02E0114890ED1A0ABEEE9B
S1131BA8C80A10EE102A104670470D4890F85423BE
S1131BB8104670470A4AD2F8E433002138B9D2F8FB
S1131BC8E0030340002814BF43F001030121C2F8D5
S1131BD8E4330846704700F031BD0000EBC91849EA
S1131BE87CE0FF1F7FECD7FF10B5DFF8984A002090
S1131BF8C4F8E400C4F8504204F28D10C4F840015B
S1131C08C4F8FC4104F5C670C4F83C0104F16C0046
S1131C18C4F8E80004F17000C4F8EC0004F178009A
S1131C28C4F8F00004F17400C4F8F40004F1B80036
S1131C38C4F8F80004F1A000C4F8000104F1A400F9
S1131C48C4F8040104F19C00C4F8080104F1AC00D0
S1131C58C4F80C0104F1D000C4F8FC0004F1C0007D
S1131C68C4F8100104F1B000C4F8140104F1B4007C
S1131C78C4F8180104F15800C4F81C0104F1600008
S1131C88C4F8240104F14400C4F8280104F1500004
S1131C98C4F82C0104F15400C4F8300104F1240000
S1131CA8C4F8340104F1D400C4F8200104F1E000BC
S1131CB8C4F8380104F5A470C4F84C0204F5A27001
S1131CC8C4F8440204F5C070C4F8480204F12800BA
S1131CD8C4F85C0204F12C00C4F8540204F138007E
S1131CE8C4F8580204F1E400C4F8600204F12C00BA
S1131CF8C4F8000204F18800C4F80C0204F15C0082
S1131D08C4F8180204F17000C4F8100204F5A270B3
S1131D18C4F8080204F1C400C4F8140204F5A47059
S1131D28C4F8040204F1E400C4F81C0204F5AA701F
S1131D38C4F8080304F17800C4F80C0304F1900013
S1131D48C4F8100304F1E400C4F8140304F1900087
S1131D58C4F8640204F1BC00C4F86C0204F19400F1
S1131D68C4F8680204F5A270C4F8700204F198007B
S1131D78C4F8740204F1B000C4F8780204F1E40071
S1131D88C4F87C0204F19800C4F8D80104F1AC004A
S1131D98C4F8DC0104F5A270C4F8EC0104F1B00045
S1131DA8C4F8D00104F15800C4F8D40104F11800AF
S1131DB8C4F8F00104F10C00C4F8F40104F188003B
S1131DC8C4F8E00104F17C00C4F8E40104F1E4007F
S1131DD8C4F8F80104F10C00C4F8F40204F5BA706C
S1131DE8C4F8000304F5C070C4F8FC0204F5A2703A
S1131DF8C4F8F00204F5A470C4F8F80204F1E4008D
S1131E08C4F80403C4F850030020C4F82C04DFF811
S1131E189809C4F83C04DFF89409C4F84004DFF8CE
S1131E289009C4F844040020C4F84804C4F8E40041
S1131E3800F076FA94F8E400C00709D504F5467072
S1131E4802F068F904F5CE7104F5FE7001F03AFB6E
S1131E58002084F8580307F07FFEDFF85809C4F817
S1131E68F00310BDFDFFFBFF10B5DFF81848D4F8E8
S1131E78E400C0F34000002800F0E980D4F8F4033B
S1131E88011DC4F89C11D4F8F813C4F8A81101F181
S1131E980802C4F8A021C4F8B4110A1DC4F8A42186
S1131EA8C4F8C01101F14802C4F8AC210A1DC4F8F1
S1131EB8B02101F18802091DC4F8BC11C4F8B82185
S1131EC8D4F8081449B1C4F8CC1101F10802091D69
S1131ED8C4F8C421C4F8C81101E0C4F8C411D4F882
S1131EE8FC13C4F81813D4F80414C4F8241301F127
S1131EF80802091DC4F82013C4F81C2300F19C012E
S1131F08C4F82813D4F80014C4F8341301F10802EF
S1131F18091DC4F83013C4F82C2300F5D871C4F88B
S1131F2838134168C4F8D010E4300021C4F8D41040
S1131F3803F0E2FADFEDA20AD4F8F40390ED540AB0
S1131F4820EE200ADFED9F0A04F2D04020EE200A9A
S1131F5880ED000A0020C4F8640404F5CE7104F589
S1131F68FE7001F05BFBD4F818034069C4F8E00282
S1131F78B7EE000AD4F818038069C4F8E402002014
S1131F88C4F8EC02D4F81803C069C4F8C402D4F83D
S1131F981803006AC4F8C8020020C4F8C002C4F8D0
S1131FA8BC02D4F818034068C4F8E8020020C4F856
S1131FB8DC02D4F8E802C4F8D8020020C4F880048B
S1131FC8D4F818034068C4F88804D4F8180340689F
S1131FD8C4F88C04D4F818030068C4F884040020F6
S1131FE884F85F03A4F8840304F2904080ED000AA7
S1131FF804F2604080ED000AD4F8F40300F14401CF
S113200804F5E87000F0DEFD002084F85D03F7EEC7
S1132018000A04F5B360C4F83C0304F2A470C4F8DD
S1132028440304F5F460C4F84003D4F8F40390EDD1
S1132038530AB8EEC00A04F2284080EE800A80ED04
S1132048000AD4F8E40040F00100C4F8E40010BD2C
S113205810B5DFF8644794F8E400C00730D5D4F825
S1132068B80010F1010F1CBF401CC4F8B80094ED6F
S1132078550AB5EE400AF1EE10FA48BFB1EE400A2F
S1132088D4F8F41384ED1B0A04F5117001F0D2F9A5
S113209804F5CE7104F5FE7001F0ECFDD4F81813C4
S11320A804F5427000F03CFC04F27C4004F54A71EB
S11320B880ED000A04F51970BDE8104001F0FEB87F
S11320C810BD000010B507F057FDDFF8B84594F8C7
S11320D8E400C00773D507F0AAFDD4F8F403D4F8D4
S11320E8B41484ED1A0AB7EE001AD0ED520A30EE91
S11320F8600AD0ED510A00EE201A90ED4E0A21EE46
S1132108000A84ED340AE43011B1491EC4F8B41449
S113211803F0A8FB04F54270D4F8181302F0F4F89D
S1132128B4F8860300281ABF401EA4F88603C4F82E
S11321388004D4F8F40300F1440104F5E87000F0D5
S113214853FED4F80403006990ED000AD4F874042B
S113215800EE900AB4EE600AF1EE10FA06DBD4F849
S11321687004C4F87404012084F85D03D4F874047A
S113217800EE900AF4EE400AF1EE10FA06DBD4F809
S11321886C04C4F87404002084F85D03DFED0D0AC0
S1132198D4F8F40390ED550A20EE200AD4ED1B0A76
S11321A8F4EE400AF1EE10FAA2BFD4ED1D0AF4EEE3
S11321B8400AF1EE10FAA4BF002084F86B0310BDA6
S11321C86F1203395077D63D10B5DFF8B8442DEDBA
S11321D8028B94F8E400C00740F19F80D4F81804F7
S11321E894ED520A94ED1D2AD4F8F41300EE900AE3
S11321F804F2184040EE000AC0ED000AD4F81C04AA
S113220894ED530A01EE100A04F21C4000EE001A81
S113221880ED001AD4F8200494ED540A01EE900AD3
S113222804F2204040EE001AC0ED001AD4F8240449
S113223800EE100A04F2244030EE020A80ED000A8F
S1132248B4F87C03401CA4F87C0380B2D1F84C1188
S1132258884228DBD4F8280470EE810A70EEA10ABB
S11322689FED921A02EE100A60EE810A60EE820A6D
S1132278F5EE400AF1EE10FA02DBF1EEE00A01E0B5
S1132288DFED8B0A20EE020A0020C4ED330A84ED48
S1132298320AA4F87C03C4F81804C4F81C04C4F86B
S11322A82004C4F8240494ED0C0AD4ED010A94ED36
S11322B8021A94F88D0120EE200AD4ED0D0A00EEDE
S11322C8810AF7EE080A20EE208AB0B904F2C63172
S11322D804F2A63007F013FBB4F8A60380070CD564
S11322E894ED360ADFED840A20EE200ADFED830A36
S11322F808EE200A84ED360A02E00020C4F8D8006B
S1132308D4ED550A94ED2B0AF5EE400AF1EE10FAD5
S113231848BFB1EE400A84ED370ABDEC028B10BD0C
S113232810B5DFF860430020C4F8B80084F88D01C4
S113233884F88C01D4F8E40020F40170C4F8E400B3
S1132348C00736D5D4F8F40390ED540ADFED8B0AB0
S113235820EE200ADFED6B0A04F2D04020EE200ABA
S113236880ED000A012084F86B0304F5CE7104F5AE
S1132378FE7001F0A7F804F5467001F0CBFE4FF0AB
S11323887E50C4F85404D4F828030068C4F85C04E4
S11323980020C4F85804D4F8F40300F1440104F507
S11323A8E87000F00FFC04F54E7104F53C7001F080
S11323B889FDD4F8E40100214160D4F8E401816086
S11323C810BD10B5DFF8F043D4F8D814D4ED1C0AC6
S11323D8D4F8E40000EE101A20EE200AB5EE400A04
S11323E8F1EE10FA4CBF40F0040020F00400C4F8E9
S11323F8E400D4F8E400C0F3C01171B103F01BFB8E
S113240801282DD10020C4F8D004012084F86B03DE
S1132418D4F8E40040F4007020E0C0F3402040B158
S1132428002084F86B03D4F8E40020F40070C4F8A6
S1132438E40094ED550AB5EE400AF1EE10FA04DD15
S1132448D4F8E40040F4807008E0B5EE400AF1EEF8
S113245810FA05D5D4F8E40020F48070C4F8E40038
S113246804F5117000F056FF04F5CE7104F5FE7002
S113247801F00EF904F5467104F5427001F092FE7C
S113248804F54A7104F5197000F094FDD4F8F403C6
S113249800F1440104F5E87000F0C2FB04F54E7144
S11324A804F53C70BDE8104001F046BDABAAAA3E55
S11324B800000000DFF800030021C0F82C14DFF846
S11324C85417C0F83C14D0F8E41021F08001C0F887
S11324D8E410002101678167C0F8AC10C0F89010BF
S11324E8C1664167C0F85411D0F8E41021F0100116
S11324F8C0F8E4107047000048E17A3F0AD7A33CCB
S113250854E5FF1F5077D63D10B5FFF709FF5D4C22
S113251894F8E400C00715D504F5467001F0FAFDF7
S113252804F5CE7104F5FE7000F0CCFF94F8E400D5
S1132538C00707D5D4F8F40300F5AC7104F5E870C6
S113254800F040FB0020C4F80C04C4F81004C4F8DC
S113255814042067A067C4F8AC00C4F89000E066CF
S11325686067C4F85401D4F8E40020F01000C4F8FB
S1132578E4000020C4F8D80010BD00006F1203392D
S113258801460020062900D9704710B4DFE801F09D
S1132598040B53121A324900DFF81C1291F857132E
S11325A8032949D147E0DFF8101291F858130907B5
S11325B842D540E0DFF8000290F8E40010BC00F0D7
S11325C801007047DFF8F01191F8E420D20733D501
S11325D8D1F8F423D1F8B830D2F8D440A3423EBF9E
S11325E8D2F8D820B1F87E138A4225D27249A1F8CC
S11325F87E0320E0704991F8E420D2071CD5D1F875
S1132608F423D1F8B840D2F8D430A3423EBFD2F86C
S1132618DC20B1F87E138A420ED26749A1F87E0302
S113262809E06549D1F8E420C2F3401323B122F04C
S11326382000C1F8E400012010BC704701460020C6
S113264801B9704700B581B00E480A68C0F8F42390
S11326584A68C0F8F8238A68C0F8FC23CA68C0F836
S113266800240A69C0F804244969C0F80814D0F899
S1132678E41041F00201C0F8E410FFF7F5FB012073
S113268801B000BD7CE0FF1FDFF82009B0F880131B
S113269890F8582307231A427BD0930718D5D0F80B
S11326A8F43390ED1D0AD3ED320AB4EE600AF1EE6C
S11326B810FA6ED5002956D1A0F8801302F0F8025A
S11326C842F00802002180F85823A0F87E137047CE
S11326D8D30739D590F88D3123BBD0F8F42390ED86
S11326E81D0AD2ED310AB4EE600AF1EE10FA0ED5E5
S11326F8C9BBD2F8D010A0F88013012280F88D212C
S11327080021002280F88C21A0F87E137047012153
S113271880F88C11D2F8CC10A0F880130021A0F80E
S11327287E137047F9B9A0F8801302F0F802002369
S113273842F00802002180F88C3180F88D3180F84D
S11327485823A0F87E137047012380F88C3190ED4C
S11327581D0AD0F8F433D3ED320AB4EE600AF1EE70
S113276810FA16D531B1491EA0F880130021A0F83B
S11327787E137047A0F8801302F0F802002342F099
S11327880802002180F88C3180F85823A0F87E13C1
S11327987047D0F8F413D1F8CC10A0F880130021B6
S11327A8A0F87E1370470000CDCCCC3DCDCC0C40B6
S11327B8CDCC4C3E0000F0417CE0FF1F30B581B029
S11327C8DFF8E8472DED028B002584B0C4F8B85033
S11327D804F5117000F09EFD04F5CE7104F5FE7049
S11327E800F056FFD4F8540290ED010AD4F85402CC
S11327F820EE000A8DED010A90ED020ADDED010AD2
S113280840EE000AF5EE400AF1EE10FA02DBB1EEF2
S1132818E00A01E09FED990A01A8C4F848038DED88
S1132828010A00A8C4F84C039FED958AD4F8F40370
S113283800F1E40104F5527002F090FEB0B3D4F84C
S1132848AC0400EE100AD4F8F40384ED340AD0ED95
S11328584E0A90ED501A30EE600AD0ED4F0A60EE41
S1132868200A90ED520A00EE810A84ED1A0A07F054
S1132878D8F9F8EE080A94F8590300EE100A401C37
S1132888B8EE400A84F8590320EE080A80EE200ABC
S113289804F188010125C0B284ED350AC4F8E011B9
S11328A8032829DB002084F8590325E0F8EE080AF8
S11328B894F8590300EE100AB8EE400A20EE080A0C
S11328C880EE200ADDED000AF5EE400AF1EE10FA7A
S11328D804BFDFF8440D009002A801F0C5FF02A868
S11328E8C4F8E001D4F8E40100994160D4F8E401A3
S11328F88560D4F8E4010560D4F8F40300F14401D8
S113290804F5E87000F08CF904F54E7104F53C7098
S113291801F012FB04B02846BDEC028B01B030BDB7
S1132928C168896991ED000ADFF88016D1F840344E
S1132938DFEDB70A20EE200A01F2304200EE903AA9
S1132948F1EE600AC2ED000ADFEDB20AD1F83824CC
S113295801EE102AC2681269F6EE0F1A21EE211A46
S1132968D2ED001A71EEA01A9FEDAB2A01F238429B
S113297801EE821A82ED001AC0680268C2F3C0121E
S1132988002A44D0006DD0ED001A01F24840B7EE99
S1132998082A20EE020AC0ED001A20EE210A20EED1
S11329A8210A01F2344080EE010A80ED000AD1F8D0
S11329B8440401EE100AB4EE401AF1EE10FA08D5F8
S11329C801F2344080ED001AD1F8340400EE100A04
S11329D87047D1F83C0401EE100AB4EE410AF1EE56
S11329E810FA0BD50020C1F8340401F23C40C0EDC4
S11329F8000AD1F8340400EE100A7047DFF8740CAA
S1132A08C1F83C04D1F8340400EE100A7047D1F838
S1132A18D80400EE100AD1F8DC04F0EEC00A01EE86
S1132A28100AF5EE400AF0EEC11A20EE012AF1EE82
S1132A3810FA07BFF5EE401AF1EE10FAB4EE410AA7
S1132A48F1EE10FA15D0B5EE402AF1EE10FA10DBCB
S1132A58F4EE610AF1EE10FA0BD4DFED700AB4EE6D
S1132A68600AF1EE10FA4CBFDFF8000C0020C1F840
S1132A783404D1F8340400EE100A70470000000052
S1132A88DB0FC9408269D16891ED000ADFF81C1593
S1132A98D1F8D83400EE903AD1F8DC34B0EEE01A2C
S1132AA801EE903AB5EE401AB0EEE12A60EEA12AA2
S1132AB8F1EE10FA07BFB5EE402AF1EE10FAF4EE83
S1132AC8610AF1EE10FA2BD0F5EE402AF1EE10FA75
S1132AD804DBB4EE421AF1EE10FA21D5B5EE400A41
S1132AE8F1EE10FA0BDD036893ED000AB5EE400A27
S1132AF8F1EE10FA37D8136843F0800332E0B5EEEC
S1132B08400AF1EE10FA2ED5036893ED000AB5EEEB
S1132B18400AF1EE10FA26DD136843F0800321E041
S1132B28B5EE400AF1EE10FAC1BF0368D3ED000A0E
S1132B38F5EE400AF1EE10FA03DD136823F0800382
S1132B481360B5EE400AF1EE10FA41BF026892ED47
S1132B58000AB5EE400AF1EE10FA04D5826913684A
S1132B6823F0800313608069D1F82C24006800EEF8
S1132B78902AC0F3C01088B1D1F8300400EE100ACE
S1132B8830EE601ADFED951A41EE210AF4EE400AA0
S1132B98F1EE10FA0DD5F0EE400A0AE0F5EE400A1F
S1132BA8F1EE10FA46BF9FED8E0A70EE800ADFED53
S1132BB88D0A01F22C40C0ED000AD1F82C0400EE75
S1132BC8100A7047426A00235360406A8360DFF842
S1132BD8F0080A69C0F8A8224A69C0F8AC22C0F80B
S1132BE8A032C0F8A4328A69C0F88C22CA69C0F835
S1132BF89022C0F88832C0F884320A68C0F8942257
S1132C0891ED000AB1EE400A80EDA60A7047000073
S1132C183333733FCDCCCC3D0000003DB0F7464381
S1132C2870B50446E14E206890ED000A6068D0ED66
S1132C38000A30EE600A0D4686EDA00A06F52070FB
S1132C4802F0E8FAE06996EDA20AD0ED000A9FEDD9
S1132C58D31A60EE810A95ED031A60EE810A60EEDC
S1132C68A00A40EE400AF5EE400AF1EE10FA02DB43
S1132C78B1EEE00A01E09FED5B0A86EDAC0AB1EE25
S1132C88400A86EDAD0AA06890ED000AE068D0ED30
S1132C98000A30EE600A86EDA70A06F5277002F0EE
S1132CA8B9FA606990ED010AB5EE400AF1EE10FA3E
S1132CB802BFD0ED020AF5EE400AF1EE10FA11D087
S1132CC886EDA10A86EDA20A6069D0ED020AC6ED76
S1132CD8A80AC6EDA90A206A80ED010A206AC0ED97
S1132CE8020A62E0206A96EDA20A96EDA91A80ED1E
S1132CF8010A206A80ED021AA06AD5ED021A8068DA
S1132D08D0ED000A60EEA10ADFEDA51A60EEA10A73
S1132D18FDEEE01A11EE900ADFEDA21AF4EE610A54
S1132D28F1EE10FA48BF401E01EE900AF8EEE11ADF
S1132D3870EEE10ADFED9C1A60EEA10AFDEEE01ADE
S1132D4811EE900AC005C00D00F180010246C905C4
S1132D5801EE902AC90DDFF83429F8EE611A02EB66
S1132D68810370EEE10A02EB8101F7EE001A71EEBD
S1132D78E01A93ED002AD1ED012A21EE822A02EB12
S1132D88800100EEA22AD1ED002A02EB800061EE58
S1132D98A21AD0ED012A40EEA21A60EE210A20EE12
S1132DA8020A41EE020A01EE610A2069616A90EDA5
S1132DB8011AD0ED001A20EE011A00EEE11A81ED95
S1132DC8011A90ED001A20EE010A90ED011A00EEA6
S1132DD8810A81ED020A0020086070BD0AD7A33C6D
S1132DE8CDCC4C3D00000000F0B4826ADFF8D00678
S1132DF854694B682468A34214D30A69C0F8A8220A
S1132E084A69C0F8AC228A69C0F88C22C969C0F83A
S1132E1890120021C0F84C14C0F85014A0F8821382
S1132E28F0BC7047D0F84C34D0F850449C4257D189
S1132E38126991ED081A92ED000ADFED5D0A21EEA0
S1132E48201A0022B5EE401AF1EE10FA41DDB4EE74
S1132E58410AF1EE10FA3CD491ED0E1A21EE201A33
S1132E680122B5EE401AF1EE10FA32DDB4EE410A51
S1132E78F1EE10FA2DD491ED141A21EE201A022243
S1132E88B5EE401AF1EE10FA23DDB4EE410AF1EE84
S1132E9810FA1ED491ED1A1A21EE201A0322B5EE67
S1132EA8401AF1EE10FA14DDB4EE410AF1EE10FA0C
S1132EB80FD491ED201A61EE200A0422F5EE400A9F
S1132EC8F1EE10FA05DDB4EE600AF1EE10FA58BF1F
S1132ED805220021C0F85024A0F88213F0BC7047E2
S1132EE8B0F88223521C04EB4405A0F8822301EBBA
S1132EF8C50503EB430701EBC7016E6AD1ED060A6A
S1132F0895ED061AD5ED072AD5ED043AD5ED054A0F
S1132F1812B201EE902A00EE106AF8EEE11A31EED0
S1132F28602AB8EEC00A22EE212A82EE002A72EE46
S1132F38200A91ED072A32EEC23A23EE213A83EEB3
S1132F48003A33EE022A91ED043A33EEC34A24EEF2
S1132F58214A84EE004A34EE033A91ED054A34EEF0
S1132F68C45A65EE211A81EE800A30EE040AB24290
S1132F7809DBC0F84C44F0EE410AB0EE622AB0EE28
S1132F88633AB0EE640AC0EDA30A80EDA42A80ED8A
S1132F98AA3A80EDAB0AF0BC704700003ACD133F63
S1132FA883F9223E000080B4000000447CE0FF1F47
S1132FB85077D63D70B504462DED028B0D46216839
S1132FC8206909680160DFEDD01AA16928680A6AD6
S1132FD8126822F0004200EE102A8A68126822F071
S1132FE8004200EE902AE26892ED001A8A6921EE06
S1132FF8211AD0ED081A21EE211AD2ED001ACA6955
S113300892ED002A61EE821A21EE011A01EEE11A0C
S1133018B5EE401AF1EE10FA02DBB1EEC11A01E086
S11330289FEDBA1A8A69C96AD2ED001A01EEC01A6C
S113303881ED001A9FEDB60AA1694A69836812688E
S113304830EE800A81EE008A9A4231D3226992EDE9
S1133058000A8A6AD2ED000A30EE600AD0ED060A48
S113306860EE200A90ED070AF4EE400AF1EE10FA39
S1133078A8BFF0EE400A06DAF5EE400AF1EE10FABF
S113308898BFDFEDA20AB0EE480A08EE600AB0EE77
S1133098408A90ED010AB4EE408AF1EE10FA07DA9C
S11330A8B5EE408AF1EE10FA04D89FED988A01E053
S11330B890ED018A486BDFF8086480ED008AD6F841
S11330C8580400EE100A2068B5EE400AF1EE10FA32
S11330D80AD1006820F0004000EE100A281D01F013
S11330E88DFBF0EE400A2AE0A169D0ED002A496C74
S11330F8D1ED010A91ED021A2968D1ED001A91ED7A
S1133108093AB0EE612A00EE802A62EE832A62EE62
S1133118A12A70EEC10A40EE801A82EEA10A20EEBE
S1133128010A62EE020A40EE000AF5EE400AF1EEE8
S113313810FA02DBF1EEE00A01E0DFED740AB4EE06
S1133148608AF1EE10FA4CBF0120002086F85A0379
S1133158D6F85C0400EE100AB4EE408AF1EE10FAD8
S11331680CDBF4EE480AF1EE10FA16DAB4EE600A53
S1133178F1EE10FA0FDBB0EE408A0EE0F4EE400AEE
S1133188F1EE10FA02DBB0EE408A06E0B4EE608A93
S1133198F1EE10FA01DAB0EE608AD6F8600400EEB7
S11331A8100A606928EE000A80ED000A286890ED8C
S11331B8000A6069D0ED000AB4EE600AF1EE10FA74
S11331C84CBF0020012086F85B03A069006990EDDC
S11331D8000A2868D0ED040AB4EE600AF1EE10FA89
S11331E839D5D6F8540400EE100ADFEDB30A06F216
S11331F8544030EE200A80ED000AB7EE001A286821
S1133208D0ED050AF4EE410AF1EE10FA10DBB4EE43
S1133218600AF1EE10FA1ADADFEDA80AB4EE600AD1
S1133228F1EE10FA17D54FF07E50C6F854041BE09F
S1133238B4EE410AF1EE10FA04DB4FF07E50C6F802
S1133248540411E0F4EE400AF1EE10FA03DB06F23E
S11332585440C0ED000AD6F8540400EE100AB5EE46
S1133268400AF1EE10FA16DDD6F8580400EE100AFA
S1133278B5EE400AF1EE10FA0DD1D6F8540400EE7A
S1133288100A2868D0ED030A06F2544030EE600AAA
S113329880ED000A02E00020C6F85404D6F854046D
S11332A800EE100A2868D0ED000A06F25C4020EE11
S11332B8200A80ED000ABDEC028B70BD30B50546CE
S11332C881B0AA6909685269886812687C4C90427E
S11332D806D22846FFF7D6FB04F2584080ED000AD0
S11332E8A869D4F8542400EE102ADFED740A0168A2
S11332F8B4EE600AF1EE10FAACBF41F0400121F0DF
S11333084001016001B030BD3ACD133F0000000018
S1133318CDCCCC3D8268D2ED000A92ED011AC16889
S113332870EE810A92ED021A9FEDCF0A70EE810ABF
S113333860EE800AC1ED000A92ED001A71EE600A8F
S1133348C1ED010A92ED011AD2ED021ADFEDC80AA5
S113335831EE611A21EE201A81ED021AC169896DD4
S1133368097859B1016900224A6001698A60416992
S11333780A6041694A60406982607047016891ED5A
S1133388001A4168D1ED001A416961EE811AC1ED54
S1133398001A4168D1ED011A416961EE811AC1ED43
S11333A8011A4168D1ED021A416921EE811A81EDB1
S11333B8021A416991ED001AD1ED011A91ED022A20
S11333C871EE211A71EE821A61EE801A31EE611AD9
S11333D881ED001A416991ED011A31EE611A81ED0E
S11333E8011A416991ED021A31EE611A81ED021A4E
S11333F80169406990ED001AD0ED011A31EE211AE5
S1133408D0ED021A31EE211A21EE000A81ED000AEC
S113341890ED001A31EE400A81ED010A90ED010A9F
S113342890ED021A30EE410A20EE200A81ED020ADC
S113343870470000C168D1ED010A91ED020A60EEFF
S1133448A00A40EE000AF5EE400AF1EE10FA02DB9B
S1133458B1EEE00A01E09FED880AC169096D81EDCA
S1133468000A006890ED000A1548D0F8641400EECC
S1133478901A90F85C13491E40EE000AC9B2A1B92B
S11334889FED7E0A20EE800A5021B5EE400AF1EE47
S113349810FA02DBB1EEC00A01E09FED770A00F2F0
S11334A86842DFED750A82ED000A80F85C1300F2C9
S11334B86440C0ED000A70476F12833A0100803FF0
S11334C87CE0FF1F30B4DFF8B81C0022C1F890205C
S11334D8C1F89420CA630A648A64CA64C1F888205B
S11334E8C1F88C200A614A618A62CA628A61CA6127
S11334F80A624A628A60CA60C1F8A020C1F8A4209E
S1133508DFED5F0A026AD26B92ED000A81ED260AAA
S113351820EE200AFDEEC00A10EE902ADFED590ACB
S1133528B4EE600AF1EE10FA48BF521E00EE902A7B
S1133538F8EEE00A30EE600ADFED530A20EE200AC6
S1133548FDEEC00A10EE902AD205D20D02F18003D6
S11335581446DB0500EE904ADB0D4C4CF8EE600A8D
S113356804EB830530EE600A04EB8303F7EE000AEC
S113357870EEC00A95ED001AD3ED011A20EE811AF7
S113358804EB820300EE211AD3ED001A04EB820245
S113359860EEA10AD2ED011A026940EE210AC2EDD9
S11335A8000A026982ED011A02691268C1F88020D2
S11335B802695268C1F88420026A536D926B93EDD4
S11335C8000A82ED000A81ED1F0AD1ED210A91ED6E
S11335D8201A60EE800A21EE000A81ED160AC1ED78
S11335E8150AC1ED180A8A6D4A660022C1F8A82096
S11335F8C1F8AC20C1F8B020C1F8B820C1F8BC208B
S1133608C1F8B420C1F8C020006A016821F008019B
S1133618016030BC704700000AD7233C30B581B044
S113362805460C4600F016FC286A2168406D896935
S1133638016028462146FFF745FF2168DFF8400B63
S1133648D1ED0B0AB7EE000A80EE200A80ED1E0ABF
S11336582168496B01602168896B41602168C96BE5
S1133668016301B030BD0000ABAAAA3ECDCC4C3EEC
S11336783ACD133F0BD7A33D00000000CDCC4C3C02
S113368883F9223E000080B400000044144900007D
S1133698F0B581B004462DED068B86B0206ADFF8BC
S11336A8E06A8069D0ED000A206890ED011A60682C
S11336B890ED010A00EEC10A86ED0F0A0D46206A54
S11336C8806990ED001A2068D0ED021A6068D0ED88
S11336D8020A41EE610AC6ED100A206896ED2D1A19
S11336E8D0ED011A01EE610A86ED0F0A2068D0EDCB
S11336F8021A41EE610AC6ED100AD6ED120A2F68C5
S113370896ED241AD6ED151A30EE200ADFEDA70A35
S113371830EE011A41EE201A86ED240A96ED100ABD
S113372896ED131AC6ED151A30EE010A96ED251A10
S1133738D6ED161A86ED250A30EE011A41EE201A46
S1133748C6ED161A206A96ED150A406CD0ED020AE9
S1133758206890ED011A00EEC10A86ED180A20EEE1
S1133768000A206AD6ED160A406C90ED021A206809
S1133778D0ED021A41EE610A00EEA00AB5EE400A45
S1133788C6ED190AF1EE10FA02DBB1EEC00A01E047
S11337989FED870A306E009086ED1F0A706E0190C7
S11337A8F06F029000A801F0B3FC2068DDED048AF4
S11337B89DED038A90ED010AD0ED020AF0EE689AB5
S11337C8B0EE489A20EE290A00EE890AF0EEC00A03
S11337D886ED1A0AC6ED1D0A206A406A80ED000AC1
S11337E8206896ED1A1A90ED020AD0ED010A96EDBA
S11337F8162AD6ED2B2AD6ED2F3A20EE290A00EE0A
S1133808C90AF0EEC00A86ED1B0AC6ED1C0A206A36
S113381897ED083A426D416C92ED00AA826CD1EDA5
S1133828011AC06C01EE21AAD2ED001A00EEE1AA39
S1133838D1ED020A60EE201A90ED000A41EE401A1A
S11338482AEE290A01EEC90A96ED151A30EE411A34
S113385841EE032A6AEE090A96ED2E3A41EEA90AC8
S1133868F4EE433A30EEC22AF1EE10FA0CDBF4EE31
S1133878632AF1EE10FA14DAB4EE623AF1EE10FAB1
S113388811DBF0EE432A0EE0F4EE432AF1EE10FACF
S113389802DBF0EE432A06E0F4EE623AF1EE10FAA7
S11338A801DBF0EE632AC6ED2B2AF4EE433AD7ED9A
S11338B8072A21EE221A86ED121AF1EE10FAD6ED35
S11338C82B2A31EE221A86ED121AD7ED082A96ED24
S11338D82C1A02EE221A0ADBB4EE631AF1EE10FA7D
S11338E80FDAB4EE413AF1EE10FA0FDA0CE0B4EE66
S11338F8431AF1EE10FA09DAF4EE413AF1EE10FA4D
S113390802DBB0EE633A01E0B0EE413A86ED2C3AC0
S113391897ED071A22EE011A86ED131A96ED2C2A52
S113392831EE021A86ED131A206A0168C1F3801178
S113393871B12AEE0A1A01EEA11AB5EE401AF1EE97
S113394810FA02DBB1EEC11A14E09FED191A11E066
S1133958D6ED151A96ED161A61EEA11A41EE011A62
S1133968F5EE401AF1EE10FA02DBB1EEE11A01E0CD
S11339789FED0F1A806B80ED001A96ED211AD6ED93
S1133988201A29EE011A01EEE91ADFEDB91A21EE1F
S1133998211A86ED291A206A0068C0F3801048B1FC
S11339A88DED000ACDED010A08E000BF6F128338DF
S11339B800000000706D0090B06D0190206A806B6B
S11339C80068029000A801F0A3FB20690399016034
S11339D820690499416020692168D0ED010A90EDBD
S11339E8001A206A91ED010AC06920EE200AD1ED7F
S11339F8020A00EE810A80ED000A20692168D0EDF0
S1133A08010A90ED001A206A91ED020A006A20EE7C
S1133A18200AD1ED010A00EEC10A80ED000A96EDF4
S1133A28150A2069D6ED160A90ED001A20EE290A27
S1133A3800EE890AD0ED010A206A006C61EE291AA9
S1133A4840EEC91A60EEA90A41EE090AC0ED010A5E
S1133A5830EE4A0A206A006CC0ED001A86ED270A87
S1133A68DFEDBB0A96ED070A86ED209A60EE200A80
S1133A78BDEEE01A11EE100A9FEDB61AF4EE410AF3
S1133A88C6ED219AC6ED028A86ED038AF1EE10FA94
S1133A9848BF401E01EE100AB8EEC11A70EEC10A02
S1133AA89FEDAD1A60EE810ABDEEE01A11EE100A20
S1133AB8C005C00D024601EE102ADFF8342A52F878
S1133AC8203000F1800102EB8000C905C90DD0ED5A
S1133AD8011AB8EE411A02EB810070EEC10AB7EE82
S1133AE8002A01EE103A32EE602AD0ED002A90ED59
S1133AF8013A62EE222A22EE011A40EE832A00EEEF
S1133B08A11AF1EE410AC6ED090A68EEA00A48EEC8
S1133B18220A96ED0B1A96ED012AC6ED082A70EED4
S1133B28811A96ED061AC6ED0A0A01EE821A86ED86
S1133B38061AC6ED0B0AD6ED001A00EEA11AD6ED48
S1133B48050AD6ED0C1A86ED041A71EE200A00EE69
S1133B58A10ADFEDBF0AB4EE600A86ED070A86ED16
S1133B68051AF1EE10FAA4BFDFEDD10A30EE200AEF
S1133B78DFEDD00AB4EE600AF1EE10FA44BFDFEDCF
S1133B88CE0A30EE200A86ED070ADFEDCC0A96ED60
S1133B982A0A20EE200AD6ED290A9FEDC91A00EE5A
S1133BA8810A86ED2A0A206A0068C0F3C00008B1B9
S1133BB896ED040A606980ED000A206AD6ED1E0AB3
S1133BC8C06820EE200A80ED000A206AC1680968EE
S1133BD8006921F0004100EE101A80ED000A216A04
S1133BE828680A68C2F380126AB9216896ED150A32
S1133BF8D1ED020A91ED011A20EE200AD6ED160A3B
S1133C0800EEC10A13E04A6C496D92ED011AD2ED37
S1133C18021AD6ED1B0A91ED000A31EE611A20EE64
S1133C28200AD6ED1A1A60EEA10A01EE200A86EDE2
S1133C38220AF7EE080A90ED0B0A20EE200AD6EDC8
S1133C48220A20EE200AD6ED230A86ED220AB6EED1
S1133C58001A60EE810A40EE010AC6ED230A206AC2
S1133C68806AC0ED000A06B0BDEC068B01B0F0BD59
S1133C78FFFFF945F0B581B004460D4600F0EAF8B7
S1133C88A86A58B1216A096D91ED000A05F1280066
S1133C9800F0B4FD206A406D80ED000A20462968D2
S1133CA800F05CF82868DFF8D81490ED040AD0ED29
S1133CB80B0A20EE200AD1ED2A0AB0EEE01AB4EE7F
S1133CC8410AF1EE10FA4CBF0122002291ED040AD8
S1133CD830EEC00AB0EEC00ADFED940AB4EE600A12
S1133CE8F1EE10FA4CBF01230023256A2E68C6F3AF
S1133CF8C007CFB91A4205D0720703D4D1F8C0203F
S1133D08521C00E00022C1F8C020006BD1F8C0109A
S1133D18884212D2206A016841F008010160206AD1
S1133D28016821F0100107E03AB926F0080028607C
S1133D38206A016841F010010160206A816D0978E8
S1133D4819B1016821F00801016001B0F0BD00005B
S1133D5883F9223E000080B400000044006AD1EDDB
S1133D68040A026992ED000ADFF81424F4EE400A0A
S1133D78F1EE10FA04DA0368C3F38003002B3BD096
S1133D88036D91ED030AD3ED000AB4EE600AF1EE77
S1133D9810FA50D5806992ED270A91ED021AD2EDF6
S1133DA82D0A40EE010A91ED010A90ED001A20EE69
S1133DB8410AB5EE400AF1EE10FA0CD8F5EE400AC5
S1133DC8F1EE10FA14DAB4EE600AF1EE10FA07DA3A
S1133DD8C2ED2D0A36E0F4EE400AF1EE10FA02DBE9
S1133DE882ED2D0A27E0F5EE400AF1EE10FA20D80C
S1133DF80020C2F8B40070479FED4D1AD2ED2D0A89
S1133E0870EE810AF5EE400AF1EE10FA11DD91ED3B
S1133E180A1AB4EE401ADFED470AF1EE10FA08D593
S1133E2891ED090AB1EE400A82ED2E0A486AC2F8F9
S1133E38BC00C2ED2D0A92ED2D0AB5EE400AF1EE52
S1133E4810FA04D50020C2F8B800C2F8BC007047C4
S1133E58DC0F494070B5DFF8286304460D46281D79
S1133E6896ED1D0A00F0CAFC206A406C80ED010A38
S1133E7805F1100096ED1C0A00F0C0FC206A406CA5
S1133E8880ED020A05F11C0096ED1C0A00F0B6FC50
S1133E98206A806C80ED000A05F11C0096ED1D0A6D
S1133EA800F0ACFC206AC06C80ED000A70BD000014
S1133EB8DB0FC9C0DB0F49C0DB0FC94000007E3FE0
S1133EC80000003C426800235360B6EE000A4268D2
S1133ED893609FEDA81A026982ED000ADFEDA61A25
S1133EE8026982ED010A006980ED020A9FEDA30AC6
S1133EF80868D0ED000ADFF8F40860EE810A00F2E1
S1133F086C4260EE800AC2ED000A096891ED001A5D
S1133F1800F2704121EE211A00F2744021EE000AE9
S1133F2881ED000AC0ED000A70470000DBF9854105
S1133F3874C1AE380000000010B4024681B01468A1
S1133F485368D4ED000AD06893ED021A9FED8D0AE8
S1133F5880EE200AD3ED010A60EE800A21EE000A01
S1133F68B6EE001A20EE011A9FED872AF0EE411AE8
S1133F7840EE821A9FED852AB5EE400A00EE821AB9
S1133F88F1EE10FA1CDBF5EE401AF1EE10FAB5EE7C
S1133F98401A0CDDF1EE10FA03D80123F1EE410AC0
S1133FA829E00223F0EE410AB0EE610A23E0F1EEC3
S1133FB810FA15DDF0EE400A0323B1EE610A1AE0A7
S1133FC8B5EE401AF1EE10FA05DDF1EE400A0423CD
S1133FD8B0EE410A0FE0F5EE401AF1EE10FA05DDF5
S1133FE80623F0EE610AB1EE400A04E00523F1EE7F
S1133FF8610AB1EE410A30EE201ADFED651AB4EE1B
S1134008611AF1EE10FA06DB80EE010AF7EE000AF7
S113401870EEC00A0CE0F7EE001A31EEC11AF6EEA3
S1134028001A21EE211AB5EE401AF1EE10FA01D564
S11340389FED581A30EE010ADFED571AB4EE610A03
S113404870EE800AF1EE10FAA8BF9FED540ADFED76
S1134058541AF4EE610AF1EE10FAA8BFF7EE000A5A
S11340685C1E052C2AD8DFE804F0241F18110A0363
S1134078B0EE412AF0EE601AB0EE401A24E0B0EE39
S1134088412AF0EE401AB0EE601A1DE0F0EE411A33
S1134098B0EE402AB0EE601A16E0F0EE411AB0EE27
S11340A8602AB0EE401A0FE0F0EE401AB0EE602A33
S11340B80AE0F0EE601AB0EE402A05E0DFED351AAA
S11340C89FED342A9FED331A80ED021A80ED012A00
S11340D8C0ED001ADFF8144784F85E33D36810691A
S11340E81B680360D36810695B684360D368106910
S11340F89B6883609068136994F85D232AB901B0BA
S11341080A1D10BC194601F0BFB801B010BC19460D
S113411801F03EB90268DFF8D416D269C1F8C422A6
S11341280268126AC1F8C8220022C1F8C022C1F884
S1134138BC2202685268C1F8E8220022C1F8DC22D5
S1134148D1F8E822C1F8D8220022C1F880240268F4
S11341585268C1F8882402685268C1F88C2400683F
S11341680068C1F88404002081F85F03A1F884037F
S1134178704700006666863F3333733F5077D63DF9
S1134188D80F0020D7B3DD3FD7B35D3FD7B35DBFAA
S11341980100803F0000000020856B3F1F856B3FB6
S11341A8D8A3703F70B504462DED028B0D46E16827
S11341B82868CA69D0ED000A92ED000A40EE400A68
S11341C8F5EE400AF1EE10FA13DDF5EE400AF1EED1
S11341D810FA02DBB1EEE00A01E09FEDA40A8A6B53
S11341E8D2ED000A20EE200AD0ED190A20EE208A2A
S11341F801E09FED9E8A496B91ED000A281D00F0AD
S1134208FDFADFF8E865D6F88C04F0EE408A00EE93
S1134218100AB4EE408AF1EE10FA04DBD6F88C04E6
S113422808EE100A06E0B5EE408AF1EE10FA98BFDF
S11342389FED8E8AB4EE688AF1EE10FAA8BFB0EE4C
S1134248688A06DAB5EE408AF1EE10FA98BF9FED57
S1134258878A86EDBA8AE068006C90ED010A2868BE
S1134268D0ED040A30EE600A86EDB50A06F535701D
S113427800F0D0FFD6F89004D6EDB70A00EE100A85
S113428820EE200AB4EE680AF1EE10FA4CBF0120C1
S1134298002086F8600306F2784080ED000A206862
S11342A8D6F88014D0ED000A01EE101A70EE810AD7
S11342B8C0ED000A2068D0ED000A606890ED001A8D
S11342C870EEC10AC6EDAE0AE0680068C0F30020CB
S11342D8012806DBD6F87C0486EDB30A00EE100A42
S11342E803E0D6F87C04C6F8CC02B1EE400A86EDA9
S11342F8B40A06F52E7000F08DFFA068D6F8C01237
S11343080160BDEC028B70BD70B4DFF8E024B2F834
S1134318843373B1581EA2F8840392F85F0301EB47
S11343280010C169C2F8C412006AC2F8C80270BC9D
S11343387047C068CB6844692468A3420ED3C8692F
S1134348C2F8C402086AC2F8C8020020C2F8940479
S1134358C2F89804A2F8880370BC7047D2F8943461
S1134368D2F898449C4248D1406891ED091A90EDDE
S1134378000ADFED5E0A21EE201A0020B5EE401A8D
S1134388F1EE10FA32DDB4EE410AF1EE10FA2DD452
S113439891ED0D1A21EE201A0120B5EE401AF1EE26
S11343A810FA23DDB4EE410AF1EE10FA1ED491EDB1
S11343B8111A21EE201A0220B5EE401AF1EE10FA75
S11343C814DDB4EE410AF1EE10FA0FD491ED151A8A
S11343D861EE200A0320F5EE400AF1EE10FA05DD3D
S11343E8B4EE600AF1EE10FA58BF0420C2F898043B
S11343F80020A2F8880370BC7047B2F88803401CF8
S1134408A2F8880301EB041501EB0311AE6AD1EDA0
S1134418070A95ED071AD5ED082A00B201EE900AAD
S113442800EE106AF8EEE11A31EE602AB8EEC00A1E
S113443822EE212A82EE002A72EE200A91ED082A41
S113444832EEC23A63EE211A81EE800A30EE020A95
S1134458B04205DBC2F89444F0EE410AB0EE620AB9
S1134468C2EDB10A82EDB20A70BC704700000000C8
S1134478DFF8780390F8631341F0010180F86313BF
S1134488002180F8641380F88D1180F88C110121C3
S113449880F862130021C0F83812C0F82012C0F85E
S11344A82412C0F82812C0F82C12C0F83012C0F830
S11344B83412C0F83C124FF4FA51C0F84012A0F874
S11344C88A13DFF82C13C0F8A014DFF82813C0F8F7
S11344D8A414DFF82413C0F8A8140021C0F89C140D
S11344E880F8611380F86513704700005077D63D53
S11344F81449000030B581B0DFF8F0422DED088B87
S113450882B004F5717104F2A23005F0F8F9B4F838
S1134518A2030006800F00F0010594F86203012845
S113452840F0398104F51170FEF7F4FE00A8C4F8D0
S1134538E0010021D4F8E4014160D4F8E401816089
S1134548D4F89C0400EE100AD4F8A00400EE900AF3
S1134558B4EE600AF1EE10FA06D5D4F8A40400EE1D
S1134568900A70EE200A11E0F4EE400AF1EE10FA17
S11345780CD5D4F8A40400EE900A70EE600AF5EEA7
S1134588400AF1EE10FA98BFDFED960A04F29C4057
S1134598D4F8A814C0ED000A00A800EE101A00F020
S11345A863F9D4F85002DDED010A90ED011A90ED9B
S11345B8020A9DED002AD4F8D00161EE201A40EEDB
S11345C8021A20EE200ADDED000A0021016001EE46
S11345D8600AD4F8D401C0ED001AD4F8D801D4F88C
S11345E89C140160D4F8DC0180ED000AD4F8F403CB
S11345F800F5AC710A69C4F8A8224A69C4F8AC2267
S11346088A69C4F88C22C969C4F8901200F5AC719F
S113461804F5E870FEF704FB04F54E7104F53C70EC
S1134628FFF78AFC94F86103C0B9D4F89C0400EE3F
S1134638100AD4F8A00400EE900AB4EE600AF1EE71
S113464810FAC0F2BC80B4F88A03002807BF01201E
S113465884F86103401EA4F88A03B0E0012840F0FE
S1134668AE8084F865030D210020FDF71DFA00EEE5
S1134678100A9FED5D8AB8EEC00AD4ED8E8A40EE2A
S1134688088AC4ED8E8A14210020FDF70DFA00EE85
S1134698100AB8EEC00A94ED889A00EE089A84EDE0
S11346A8889A15210020FDF7FFF900EE100AB8EEEC
S11346B8C00AD4ED899A40EE089AC4ED899A162165
S11346C80020FDF7F1F900EE100AB8EEC00A94EDE7
S11346D88AAA00EE08AA84ED8AAA10210020FDF710
S11346E8E3F900EE100AB8EEC00AD4ED8BAA40EE46
S11346F808AAC4ED8BAA11210020FDF7D5F900EE14
S1134708100AB8EEC00A94ED8CBA00EE08BA84ED2B
S11347188CBA12210020FDF7C7F900EE100AF8EE52
S1134728C00AD4F83C0294ED8D0AD4F8401200EE85
S1134738880A401C84ED8D0AC4F83C0288423EDB9A
S113474800EE900AF8EEE00AB7EE001AC1EE200A6D
S113475828EEA01A84ED8E1A29EE201A84ED881A00
S113476829EEA01A84ED891A2AEE201A84ED8A1AF1
S113477802202AEEA01A84F8620384ED8B1A2BEE29
S1134788201A20EE200A002084ED8C1A84ED8D0A6C
S113479884F8650313E0022809D1032084F862032E
S11347A894F8640300F0FB0084F8640307E003282A
S11347B805D194F8630300F0FE0084F863035DB147
S11347C8012084F88D01022084F8620394F86403BC
S11347D840F0010084F8640302B0BDEC088B01B01A
S11347E830BD000000000000000080377CE0FF1F9F
S11347F89A99193F6F120339DB0FC93F81684268E0
S1134808006892ED001AD0ED000A096870EE600A9B
S113481860EE810AFDEEE00A891E10EE902A9142AC
S113482806DA00EBC100D0ED030AB0EE600A704767
S1134838002A48BFD0ED010A11D400EBC20100EBF5
S1134848C200D1ED010AD0ED001A30EE610A20EE63
S1134858010A91ED031A31EE601A40EE010AB0EE36
S1134868600A704700000000DFED250A20EE200AE8
S1134878FDEEC00A10EE901ADFED220AB4EE600ACB
S1134888F1EE10FA48BF491E00EE901AF8EEE00A5D
S113489830EE600ADFED1C0A20EE200AFDEEC00AA5
S11348A810EE901AC905C90D0B4600EE903A0FF2A6
S11348B85C0353F821C001F1800203EB8101D205A6
S11348C8D20D91ED011AF8EE600A03EB820130EE85
S11348D8600AF7EE001A71EEC01A91ED002AD1EDC4
S11348E8012A00EE90CA21EE822A00EE222A61EE05
S11348F8A00A80ED012A40EE010AC0ED000A7047C3
S113490883F9223E000080B4000000440000000047
S1134918920E493CB10AC93C2BC3163D2EFB483DB7
S1134928752B7B3D04A9963D80B6AF3D36BDC83D89
S11349382FBCE13D73B2FA3D87CF093E8340163E52
S1134948B5AB223EA2102F3ECF6E3B3EC2C5473EBA
S11349580115543E135C603E7F9A6C3ECCCF783E82
S1134968C07D823E938E883E229A8E3E32A0943E2B
S113497886A09A3EE59AA03E128FA63ED47CAC3E11
S1134988EF63B23E2A44B83E491DBE3E15EFC33E0E
S113499853B9C93ECA7BCF3E4136D53E80E8DA3E9C
S11349A84F92E03E7533E63EBBCBEB3EEA5AF13E0E
S11349B8CBE0F63E275DFC3EE4E7003F3D9C033F29
S11349C8824B063F9BF5083F6B9A0B3FDA390E3F43
S11349D8CDD3103F2A68133FD9F6153FC07F183F3F
S11349E8C6021B3FD17F1D3FCBF61F3F9967223F6D
S11349F825D2243F5636273F1594293F4AEB2B3FAF
S1134A08DE3B2E3FBB85303FC9C8323FF304353FF8
S1134A18233A373F4268393F3B8F3B3FF9AE3D3F2E
S1134A2867C73F3F70D8413F01E2433F03E4453F36
S1134A3865DE473F12D1493FF8BB4B3F029F4D3FCC
S1134A48207A4F3F3D4D513F4918533F31DB543F86
S1134A58E595563F5348583F6AF2593F1A945B3FCD
S1134A68532D5D3F05BE5E3F2146603F97C5613FBC
S1134A785A3C633F59AA643F880F663FD86B673F27
S1134A883CBF683FA7096A3F0C4B6B3F5E836C3F92
S1134A9893B26D3F9ED86E3F73F56F3F0809713F1F
S1134AA85213723F4714733FDD0B743F0BFA743F84
S1134AB8C6DE753F07BA763FC58B773FF853783F14
S1134AC89812793F9DC7793F02737A3FBE147B3FA2
S1134AD8CDAC7B3F283B7C3FC9BF7C3FAC3A7D3F94
S1134AE8CCAB7D3F23137E3FB0707E3F6DC47E3FC9
S1134AF8580E7F3F6D4E7F3FAB847F3F0FB17F3FA2
S1134B0897D37F3F43EC7F3F11FB7F3F0000803FFB
S1134B1811FB7F3F43EC7F3F97D37F3F0FB17F3F2C
S1134B28AB847F3F6D4E7F3F580E7F3F6DC47E3F01
S1134B38B0707E3F23137E3FCCAB7D3FAC3A7D3FC4
S1134B48C9BF7C3F283B7C3FCDAC7B3FBE147B3F39
S1134B5802737A3F9DC7793F9812793FF853783F9B
S1134B68C58B773F07BA763FC6DE753F0BFA743FAD
S1134B78DD0B743F4714733F5213723F0809713FAA
S1134B8873F56F3F9ED86E3F93B26D3F5E836C3F63
S1134B980C4B6B3FA7096A3F3CBF683FD86B673F24
S1134BA8880F663F59AA643F5A3C633F97C5613FE3
S1134BB82146603F05BE5E3F532D5D3F1A945B3F1F
S1134BC86AF2593F5348583FE595563F31DB543F05
S1134BD84918533F3D4D513F207A4F3F029F4D3F67
S1134BE8F8BB4B3F12D1493F65DE473F03E4453FDD
S1134BF801E2433F70D8413F67C73F3FF9AE3D3FAD
S1134C083B8F3B3F4268393F233A373FF304353FF4
S1134C18C9C8323FBB85303FDE3B2E3F4AEB2B3FB2
S1134C281594293F5636273F25D2243F9967223FBA
S1134C38CBF61F3FD17F1D3FC6021B3FC07F183FE5
S1134C48D9F6153F2A68133FCDD3103FDA390E3F02
S1134C586B9A0B3F9BF5083F824B063F3D9C033FF5
S1134C68E4E7003F275DFC3ECBE0F63EEA5AF13E1E
S1134C78BBCBEB3E7533E63E4F92E03E80E8DA3E2E
S1134C884136D53ECA7BCF3E53B9C93E15EFC33E24
S1134C98491DBE3E2A44B83EEF63B23ED47CAC3EC6
S1134CA8128FA63EE59AA03E86A09A3E32A0943E74
S1134CB8229A8E3E938E883EC07D823ECCCF783E2B
S1134CC87F9A6C3E135C603E0115543EC2C5473E54
S1134CD8CF6E3B3EA2102F3EB5AB223E8340163E1C
S1134CE887CF093E73B2FA3D2FBCE13D36BDC83DBE
S1134CF880B6AF3D04A9963D752B7B3D2EFB483D00
S1134D082BC3163DB10AC93C920E493C0000000071
S1134D18920E49BCB10AC9BC2BC316BD2EFB48BDB3
S1134D28752B7BBD04A996BD80B6AFBD36BDC8BD85
S1134D382FBCE1BD73B2FABD87CF09BE834016BE4E
S1134D48B5AB22BEA2102FBECF6E3BBEC2C547BEB6
S1134D58011554BE135C60BE7F9A6CBECCCF78BE7E
S1134D68C07D82BE938E88BE229A8EBE32A094BE27
S1134D7886A09ABEE59AA0BE128FA6BED47CACBE0D
S1134D88EF63B2BE2A44B8BE491DBEBE15EFC3BE0A
S1134D9853B9C9BECA7BCFBE4136D5BE80E8DABE98
S1134DA84F92E0BE7533E6BEBBCBEBBEEA5AF1BE0A
S1134DB8CBE0F6BE275DFCBEE4E700BF3D9C03BF25
S1134DC8824B06BF9BF508BF6B9A0BBFDA390EBF3F
S1134DD8CDD310BF2A6813BFD9F615BFC07F18BF3B
S1134DE8C6021BBFD17F1DBFCBF61FBF996722BF69
S1134DF825D224BF563627BF159429BF4AEB2BBFAB
S1134E08DE3B2EBFBB8530BFC9C832BFF30435BFF4
S1134E18233A37BF426839BF3B8F3BBFF9AE3DBF2A
S1134E2867C73FBF70D841BF01E243BF03E445BF32
S1134E3865DE47BF12D149BFF8BB4BBF029F4DBFC8
S1134E48207A4FBF3D4D51BF491853BF31DB54BF82
S1134E58E59556BF534858BF6AF259BF1A945BBFC9
S1134E68532D5DBF05BE5EBF214660BF97C561BFB8
S1134E785A3C63BF59AA64BF880F66BFD86B67BF23
S1134E883CBF68BFA7096ABF0C4B6BBF5E836CBF8E
S1134E9893B26DBF9ED86EBF73F56FBF080971BF1B
S1134EA8521372BF471473BFDD0B74BF0BFA74BF80
S1134EB8C6DE75BF07BA76BFC58B77BFF85378BF10
S1134EC8981279BF9DC779BF02737ABFBE147BBF9E
S1134ED8CDAC7BBF283B7CBFC9BF7CBFAC3A7DBF90
S1134EE8CCAB7DBF23137EBFB0707EBF6DC47EBFC5
S1134EF8580E7FBF6D4E7FBFAB847FBF0FB17FBF9E
S1134F0897D37FBF43EC7FBF11FB7FBF000080BFF7
S1134F1811FB7FBF43EC7FBF97D37FBF0FB17FBF28
S1134F28AB847FBF6D4E7FBF580E7FBF6DC47EBFFD
S1134F38B0707EBF23137EBFCCAB7DBFAC3A7DBFC0
S1134F48C9BF7CBF283B7CBFCDAC7BBFBE147BBF35
S1134F5802737ABF9DC779BF981279BFF85378BF97
S1134F68C58B77BF07BA76BFC6DE75BF0BFA74BFA9
S1134F78DD0B74BF471473BF521372BF080971BFA6
S1134F8873F56FBF9ED86EBF93B26DBF5E836CBF5F
S1134F980C4B6BBFA7096ABF3CBF68BFD86B67BF20
S1134FA8880F66BF59AA64BF5A3C63BF97C561BFDF
S1134FB8214660BF05BE5EBF532D5DBF1A945BBF1B
S1134FC86AF259BF534858BFE59556BF31DB54BF01
S1134FD8491853BF3D4D51BF207A4FBF029F4DBF63
S1134FE8F8BB4BBF12D149BF65DE47BF03E445BFD9
S1134FF801E243BF70D841BF67C73FBFF9AE3DBFA9
S11350083B8F3BBF426839BF233A37BFF30435BFF0
S1135018C9C832BFBB8530BFDE3B2EBF4AEB2BBFAE
S1135028159429BF563627BF25D224BF996722BFB6
S1135038CBF61FBFD17F1DBFC6021BBFC07F18BFE1
S1135048D9F615BF2A6813BFCDD310BFDA390EBFFE
S11350586B9A0BBF9BF508BF824B06BF3D9C03BFF1
S1135068E4E700BF275DFCBECBE0F6BEEA5AF1BE1A
S1135078BBCBEBBE7533E6BE4F92E0BE80E8DABE2A
S11350884136D5BECA7BCFBE53B9C9BE15EFC3BE20
S1135098491DBEBE2A44B8BEEF63B2BED47CACBEC2
S11350A8128FA6BEE59AA0BE86A09ABE32A094BE70
S11350B8229A8EBE938E88BEC07D82BECCCF78BE27
S11350C87F9A6CBE135C60BE011554BEC2C547BE50
S11350D8CF6E3BBEA2102FBEB5AB22BE834016BE18
S11350E887CF09BE73B2FABD2FBCE1BD36BDC8BDBA
S11350F880B6AFBD04A996BD752B7BBD2EFB48BDFC
S11351082BC316BDB10AC9BC920E49BC000000806D
S113511890ED010AB5EE400AF1EE10FA14DD90EDB7
S1135128021AB4EE410AF7EE000AF1EE10FA2AD593
S1135138B5EE401AF1EE10FA1ED1C0ED020AD0ED18
S1135148020AC0EE200A1EE0B5EE400AF1EE10FA9B
S113515817D590ED021AF1EE401AF4EE411AFFEE5B
S1135168000AF1EE10FA0ED5B5EE401AF1EE10FA77
S113517804BF4FF07E518160D0ED020AC0EE200AD0
S113518801E0DFED230AC0ED030A90ED000AB5EE55
S1135198400AF1EE10FA16DD90ED021AB4EE410A57
S11351A8F7EE000AF1EE10FA2ED5B5EE401AF1EE3C
S11351B810FA20D1C0ED020AD0ED020AC0EE200A8E
S11351C8C0ED040A7047B5EE400AF1EE10FA19D59D
S11351D890ED021AF1EE401AF4EE411AFFEE000ABD
S11351E8F1EE10FA10D5B5EE401AF1EE10FA04BF3C
S11351F84FF07E518160D0ED020AC0EE200AC0ED66
S1135208040A7047DFED020AC0ED040A7047000083
S11352180000000090ED000AD0ED040A90ED031A96
S113522860EE800AF0EE601A41EE001A90ED010A71
S113523890ED051A31EE800AB4EE401AF1EE10FA38
S113524807D5F5EE400AB0EE410AF1EE10FA10DD8A
S11352580DE090ED061AB4EE410AF1EE10FA42BFE1
S1135268B0EE410AF5EE400AF1EE10FA01D5DFED91
S1135278050A80ED020A90ED010A30EE200A80ED5D
S1135288010A70470000000070B50D462DED028B31
S113529895ED008AB5EE408A04461646F1EE10FAFA
S11352A81EBFB7EE000AB4EE408AF1EE10FA19D028
S11352B8304694ED000AFFF7A1FA38EE000AF7EE3B
S11352C8000AB4EE600AF1EE10FAA8BFB7EE000ABD
S11352D806DAB5EE400AF1EE10FA98BF9FED2B0AF4
S11352E885ED000A95ED018AB5EE408AF1EE10FAD3
S11352F81EBFB7EE000AB4EE408AF1EE10FA19D0D8
S1135308304694ED010AFFF779FA38EE000AF7EE11
S1135318000AB4EE600AF1EE10FAA8BFB7EE000A6C
S113532806DAB5EE400AF1EE10FA98BF9FED170AB7
S113533885ED010A95ED028AB5EE408AF1EE10FA80
S11353481EBFB7EE000AB4EE408AF1EE10FA19D087
S1135358304694ED020AFFF751FA38EE000AF7EEE8
S1135368000AB4EE600AF1EE10FAA8BFB7EE000A1C
S113537806DAB5EE400AF1EE10FA98BF9FED030A7B
S113538885ED020ABDEC028B70BD00000000000030
S113539891ED000AB5EE400AF1EE10FA1EBFF7EEE1
S11353A8000AB4EE600AF1EE10FA2BD0D0ED000A30
S11353B8B7EE001AF4EE410AF1EE10FAA8BFF7EEC0
S11353C8000A08DA9FED4A1AF4EE410AF1EE10FADF
S11353D848BFFFEE000A9FED471A00EE810AF7EE78
S11353E8000AB4EE600AF1EE10FAA8BFB7EE000A9C
S11353F806DAB5EE400AF1EE10FA98BF9FED560AA8
S113540881ED000A91ED010AB5EE400AF1EE10FAB9
S11354181EBFF7EE000AB4EE600AF1EE10FA2BD0C4
S1135428D0ED010AB7EE001AF4EE410AF1EE10FAD3
S1135438A8BFF7EE000A08DA9FED2D1AF4EE410A28
S1135448F1EE10FA48BFFFEE000A9FED2A1A00EEAB
S1135458810AF7EE000AB4EE600AF1EE10FAA8BF6A
S1135468B7EE000A06DAB5EE400AF1EE10FA98BF74
S11354789FED390A81ED010A91ED020AB5EE400A61
S1135488F1EE10FA1EBFF7EE000AB4EE600AF1EE70
S113549810FA2BD0D0ED020AB7EE001AF4EE410A46
S11354A8F1EE10FAA8BFF7EE000A08DA9FED101A19
S11354B8F4EE410AF1EE10FA48BFFFEE000A9FED40
S11354C80D1A00EE810AF7EE000AB4EE600AF1EE56
S11354D810FAA8BFB7EE000A06DAB5EE400AF1EEF4
S11354E810FA98BF9FED1C0A81ED020A704700006C
S11354F8FEFF7FBF6F12833CDFF8BC1A002281F8DD
S11355086723C1F8B024026BC1F8AC24002281F8E7
S11355186623C26B81F86A230022A1F8962390EDD2
S1135528010AD0ED020AB1F88C2330EE600AB0EE1D
S1135538C00AF6EE000A20EE200AD0ED0B0A01F2AA
S1135548CC4020EE200A80ED000A012060F301021D
S1135558A1F88C2370470000000000002DE9F043F7
S1135568DFF8543AB3F89243D3F8BC84B3F99653AA
S113557893F86A7300EE108AD3F8C08400EE908A18
S1135588D3F8C48401EE108AD3F8C8840A4601EE1D
S1135598908A0021B3F88E83002F03D07A1E83F8F3
S11355A86A233FE1D76B83F86A7304B1641E876882
S11355B8D2ED0D2AD7F810C09CED002AB4EE622A69
S11355C8F1EE10FA4CBF08F101088846D3F8B8C4C4
S11355D893F86793B3F88CE302EE10CAB9F1070F96
S11355E800F2EF80DFE809F00407234575CEE2E80E
S11355F89FED9B2AE5E03E6D92ED013AD6ED002A37
S1135608F4EE432AF1EE10FA04D5D2ED072A32EE6D
S1135618222AD6E0A4B2002C40F0D380022600252A
S11356289FED8F0ADFED8E0A83F86763C9E01FFADE
S113563888F8966A46450ADA0668D6ED002A3E6D69
S113564830EE220AD6ED002A70EEA20A6D1C2DB2A5
S113565802EE905AF8EEE22A92ED0B3AF4EE432A5F
S1135668F1EE10FAC0F2AD805469032683F867633B
S1135678A7E03F6D92ED023AD2ED013AD7ED002A48
S1135688B4EE633AF1EE10FA09DBF4EE432AF1EED4
S113569810FA11D5D2ED082A32EE222A08E0B4EE27
S11356A8623AF1EE10FA07D5D2ED082A32EE622AF0
S11356B8F6B2002E00F08580A4B2002C40F0818060
S11356C8042600259FED661ADFED651A83F86763E3
S11356D877E01FFA88F8966A46450ADA0668D6ED2E
S11356E8002A3E6D31EE221AD6ED002A71EEA21A76
S11356F86D1C2DB202EE905AF8EEE22A92ED0B3AA6
S1135708F4EE432AF1EE10FA5BDBD3F8CC6471EEC5
S1135718E02AF0EEE22A03EE106AF4EE432AF1EEF0
S113572810FA0ADB31EE403AC3EE222A4FF6FD7630
S1135738F0EEE22A06EA0E0E05E0D3F8B06402EEB3
S1135748906A4EF0020EF5EE402AF1EE10FA08BF08
S1135758D2ED0C2A03F2AC46C6ED002A966BC3F8C8
S1135768B464D3F8AC64C3F8B06493F86663042EE5
S113577804D193F86963761C83F86963052683F872
S113578867631EE03E6DD2ED032A96ED003AF4EE0F
S1135798432AF1EE10FA04D5D2ED092A32EE622A30
S11357A80FE09469062683F867630AE0A4B244B953
S11357B8072683F8676304E04FF6FE7101EA0E0ECC
S11357C8012103F2B846A3F88CE386ED002AB3F866
S11357D894631EB1721EA3F8942323E0C3F8B8643B
S11357E8D3F8B06402EE106A03F2AC46B5EE402A70
S11357F886ED002AF1EE10FA04BF126BC3F8AC244C
S113580893F86723012A04D18268166846F02006B3
S11358181660072283F86723B3F88C2342F0020248
S1135828A3F88C2303F2C842A3F88E83C2ED001AAE
S113583803F2C442A3F8965382ED001A03F2C0425D
S1135848A3F89243C2ED000A03F2BC4282ED000AB7
S11358584068D3F8B82402600846BDE8F083000025
S113586800000000DFF8501790ED100AD1F8DC248E
S1135878DFED890A20EE200A00EE902AB4EE600AD1
S1135888F1EE10FA05D5042281F86623002281F886
S1135898692391F85423032A08DBD1F8E4332BB1A4
S11358A8B1F88C3343F00103A1F88C3391F86633D3
S11358B8042B59D8DFE803F0035B124732000020B9
S11358C8A1F8900381F8680381F86903032A4EDB81
S11358D891F8EC0300074AD5012046E0B1F890237B
S11358E8002A3DD1426CA1F89023B1F88C2342F0F0
S11358F80102A1F88C2391F86823521C81F86823CB
S1135908D2B2836C934232D2002281F868230322F4
S113591881F86623C06CA1F890037047B1F88C2312
S113592842F00102A1F88C23036D91F869239A428D
S11359381DD3002281F86923032281F86623C06CF1
S1135948A1F890037047B1F890234AB9C06CA1F844
S11359589003B1F88C0340F00100A1F88C03704760
S1135968501EA1F890037047002081F86603704721
S1135978DFF8440690F86B13002914BFD0F8D0144C
S1135988D0F8D41400EE901AD0F8DC1401EE101AF2
S1135998D0F8D81400EE101AB4EE401AF1EE10FA4A
S11359A81BD5DFED681AF4EE610AF1EE10FA06DB96
S11359B8B5EE400AF1EE10FA48BFDFED630AF0EEE7
S11359C8C11AF5EE401AF1EE10FA48BFDFED850A68
S11359D831EE201AB4EE401A1FE0B4EE410AF1EE9B
S11359E810FA1FD5DFED571AF4EE610AF1EE10FA3A
S11359F806DBB5EE400AF1EE10FAC8BFDFED520A35
S1135A08F0EEC11AF5EE401AF1EE10FA48BFDFEDD8
S1135A18750A31EE601AB4EE410AF1EE10FAA8BF25
S1135A28B0EE401A00F2DC4181ED001AD0F8DC0433
S1135A3800EE100A7047DFF88005D0F8D814D0F8C3
S1135A48DC0400EE101AF0EEC00A01EE100AF5EEBE
S1135A58400AF0EEC11A20EE012AF1EE10FA04BF52
S1135A68F5EE401AF1EE10FA01D100207047B4EEB9
S1135A78410AF1EE10FA01D103207047B5EE402A2D
S1135A88F1EE10FA06DBF4EE610AF1EE10FA01D435
S1135A9801207047022070475077D63D30B5DFF8B3
S1135AA8184594F86D03401E84F86D0381B0C0B2A4
S1135AB8002844D1082084F86D030D210020FBF749
S1135AC8F3FF051494F86C03012805D037D3032891
S1135AD82FD01CD301B030BD0D210020FBF7E4FF0B
S1135AE80014B4F8981380B28842ACBF411A091A5A
S1135AF889B2A4F89803032921DAADB2DC2D1EDBA0
S1135B0801221821042003F05AFE022015E0ADB248
S1135B188C2D06DA00221821042003F050FE0320FD
S1135B280BE001B0BDE8304001221821042003F045
S1135B3846BEADB2F12D02DB012084F86C0301B03E
S1135B4830BD00005177563D5077563D10B572B6BA
S1135B5800F0D5F900F032FADFF84C48606A40F4F6
S1135B6880006062342004F062F9DFF840084FF6E0
S1135B78FF7141600022142181610164DFF830184B
S1135B8801618163DFF82C180160016841F00101AB
S1135B9801603420002104F01EF900202060002256
S1135BA8DFF81408DFF81044017841F0100101709F
S1135BB8017841F00101017004F26E3004F5B1611D
S1135BC803F016FE002204F28E5104F29A3003F018
S1135BD889FE002204F2895104F26F3003F008FEB2
S1135BE862B610BDFDAD803ADFF8C40A0168090643
S1135BF803D5016821F0800101604168090603D5D5
S1135C08416821F080014160DFF80C0B0168090646
S1135C1803D5016821F0800101604168090605D5B2
S1135C28416821F08001416000F0BABF7047DFF895
S1135C387C07016821F040010160016841F001011D
S1135C4801604169090602D1C16B090617D00168D0
S1135C5821F080010160416921F47F0141614169BA
S1135C68090A09024161C16B21F47F01C163C16B57
S1135C78090A0902C163016841F0800101607047A3
S1135C88F0B5CD4C81B004F5B16104F26E3003F087
S1135C98BCFD04F2895104F26F3003F0B6FD04F23E
S1135CA88E5104F29A3003F02AFE94F86E03052804
S1135CB800F2E280DFE800F0F60316569AF6DFF801
S1135CC8F069DFF8545A1E203060706028600022A2
S1135CD85E20686004F2895104F26F3003F088FD95
S1135CE80222D6E0DFF8C869DFF82C5A0C203060AD
S1135CF80322042070600820286049206860306905
S1135D087169B4F99A33084300B28342A8BF0622E2
S1135D1804F2895104F26F3003F06AFD94F86F03BA
S1135D2806281DD128696969B4F99A3308430322FE
S1135D3800B28342A8BF062204F2895104F26F30EC
S1135D4803F056FD94F86F03062807D11D20306030
S1135D587060286003225D2068609AE0052298E05C
S1135D68052296E00C20DFF84869DFF8AC5930606A
S1135D7840F6FF770420706002220820286049203A
S1135D886860306971690840B4F99A1300B2791AE5
S1135D988842A8BF062204F2895104F26F3003F046
S1135DA827FD94F86F0306281ED1286969690840FD
S1135DB8B4F99A13022200B2791A8842A8BF0622BB
S1135DC804F2895104F26F3003F012FD94F86F0362
S1135DD8062807D11B2030607060286004225B20ED
S1135DE8686056E0052254E0052252E00C20DFF8F2
S1135DF8C068DFF824593060042204207060082049
S1135E08286049206860B4F99A03316973691BB240
S1135E1803FA81F1C90340F21E5309141B1A99426B
S1135E28A2BF00F21E508842062204F2895104F2ED
S1135E386F3003F0DDFC94F86F0306281AD1B4F927
S1135E489A0329696B691BB203FA81F1C90340F209
S1135E581E53042209141B1A9942A2BF00F21E50B1
S1135E688842062204F2895104F26F3003F0C0FC20
S1135E7805220EE005220CE0DFF83468DFF89858B4
S1135E880C2030600022042070600820286049201B
S1135E98686004F5B16104F26E3001B0BDE8F04009
S1135EA803F0A6BC01B0F0BD30B5434C81B004F595
S1135EB8B16104F26E3003F0A8FC04F2895104F2D3
S1135EC86F3003F0A2FC94F86E03052811D194F8FE
S1135ED86F53022D1CBF032D042D00D1052501226B
S1135EE804F2895104F26F3003F082FC284601B0B1
S1135EF830BD451EAD41ED0F284601B030BDF0B5AB
S1135F0881B0272003F093FFDFF81008DFF8A047DB
S1135F180168DFF80C6841F0006101607420A0603A
S1135F284BF280450420E0604AF2026700202062B8
S1135F3807206062606A40F080006062606A400620
S1135F4848BF04F01CFAEFF3108072B6378035802E
S1135F5880F3108820680006F0D5E06CA06C606CB3
S1135F68206CE06BA06BDFF8BC170004400C40F415
S1135F780040E062E06EA06E606E206EE06DA06D81
S1135F880004400C40F4004020632420A060042056
S1135F98E06000200860DFF8D41B0860206A40F045
S1135FA840002062002060620C20206004206060B1
S1135FB801B0F0BD000000007CE0FF1FF0B581B027
S1135FC8492003F034FFDFF85407DFF84C47016831
S1135FD8DFF84C6741F0800101607420A0604BF247
S1135FE880450420E0604AF202670020206207200E
S1135FF86062606A40F080006062606A400648BF80
S113600804F0BDF9EFF3108072B63780358080F361
S1136018108820680006F0D50022E06CA06C606C43
S1136028206CE06BA06BDFF8481B0004400C40F4C4
S11360380040E062E06EA06E606E206EE06DA06DC0
S11360480004400C40F4004020630420E060002079
S1136058086000212420A060206A40F040002062EB
S113606800206062082020604920606001B0BDE81B
S1136078F04003F0B0BEDFF8FC0A016841F478513F
S113608801600121DFF8F00A41604FF480720421B5
S11360984160102141600221016008210160202132
S11360A80160016941F001010161DFF8D01A0A6059
S11360B8036943F0020303614A60036943F004037C
S11360C803618A60036943F008030361CA600369D2
S11360D843F0100303610A61036943F02003036179
S11360E84A6101214160042141601021416002217B
S11360F80160082101602021016070472DE9F04307
S113610881B0DFF8844A2DED028B82B08046206B83
S113611840F080700E46206304F037F98068B0FBC5
S1136128F8F7BFB204F031F900EE106AB8EE408A0D
S113613890ED020AB8EE400ADFED750A80EE200AF7
S113614828EE000ADFED730A80EE200ADFED720AFA
S113615880EE200ABDEEC00A10EE105AADB2042D2E
S113616802DA15B1022500E0042504F00EF990EDD9
S1136178020AB8EE400ADFED660A80EE200A28EE2D
S1136188000ADFED650A80EE200ABDEEC00A10EEB3
S1136198100A012180B2A94090FBF1F080B2402896
S11361A8A8BF3F20042DBABF40EA851085B240F04D
S11361B8C005DFF8D899A9F89E837808A9F8A063E0
S11361C8A9F89C03EFF3108872B6DFF8C469316E3E
S11361D841F03F013166401E716D41F00401716563
S11361E880B241F001017165B06041F04001716510
S11361F801234FF0FF31081AF06400220220B06531
S11362080721DFF898097066206840F001002060D3
S113621823200090002004F08DFCF06F40F0010072
S1136228F0674FF48061F06840F00800F06070692E
S113623840F008007061F06940F00800F061706A8D
S113624840F008007062F06A40F00800F062706B79
S113625840F008007063306F3067B5660020B063A3
S11362683063B0623062B06130614FF40070C6F8D8
S11362789800F06E40F04000F066706D40F0020047
S11362887065306840F008003060DFF8F00801609D
S113629841608160C16001614161706F40F04000FC
S11362A87067306E80098001306688F31088002298
S11362B809F5F56109F59C6003F08DFB002209F2EC
